{
  "txid": "774baae98f1a300d91090fbde438dd6db56699afcd93a0b279d86516cedaed1e",
  "from": "2N3DzDz5zYUDS9zenuuTGeq96Gh1p1coBdA",
  "to": "2N164zLcDQbULqwWKbsEgH4zY1fQ3q1sjCQ",
  "amount": 2.0,
  "unsigned_tx": {
    "txid": "73d993885c2b1ba1054ff70f592c902195fe2fbcf8758a29a7bcf03c5e620cb5",
    "hash": "73d993885c2b1ba1054ff70f592c902195fe2fbcf8758a29a7bcf03c5e620cb5",
    "version": 2,
    "size": 115,
    "vsize": 115,
    "weight": 460,
    "locktime": 0,
    "vin": [
      {
        "txid": "2911b166463632010f0f2d59a5966d2e5b3b882d9b02b3fa9e198be0c680f976",
        "vout": 0,
        "scriptSig": {
          "asm": "",
          "hex": ""
        },
        "sequence": 4294967293
      }
    ],
    "vout": [
      {
        "value": "2.00000000",
        "n": 0,
        "scriptPubKey": {
          "asm": "OP_HASH160 5605c02632e4b36b24a90c230c51e919b483e1fe OP_EQUAL",
          "desc": "addr(2N164zLcDQbULqwWKbsEgH4zY1fQ3q1sjCQ)#t327c587",
          "hex": "a9145605c02632e4b36b24a90c230c51e919b483e1fe87",
          "address": "2N164zLcDQbULqwWKbsEgH4zY1fQ3q1sjCQ",
          "type": "scripthash"
        }
      },
      {
        "value": "1.12490000",
        "n": 1,
        "scriptPubKey": {
          "asm": "OP_HASH160 6d755a3a8f1c932c5199c03b8b1982b939da97b7 OP_EQUAL",
          "desc": "addr(2N3DzDz5zYUDS9zenuuTGeq96Gh1p1coBdA)#3fjtfn5y",
          "hex": "a9146d755a3a8f1c932c5199c03b8b1982b939da97b787",
          "address": "2N3DzDz5zYUDS9zenuuTGeq96Gh1p1coBdA",
          "type": "scripthash"
        }
      }
    ]
  },
  "signed_tx": {
    "txid": "774baae98f1a300d91090fbde438dd6db56699afcd93a0b279d86516cedaed1e",
    "hash": "c7631d809652b14e6db1f3007d6edd077df84747c83088925531eff1a97c6fde",
    "version": 2,
    "size": 247,
    "vsize": 166,
    "weight": 661,
    "locktime": 0,
    "vin": [
      {
        "txid": "2911b166463632010f0f2d59a5966d2e5b3b882d9b02b3fa9e198be0c680f976",
        "vout": 0,
        "scriptSig": {
          "asm": "00145c6219a2f8900448b1bc91b57909ca2178011a33",
          "hex": "1600145c6219a2f8900448b1bc91b57909ca2178011a33"
        },
        "txinwitness": [
          "3044022069254ec38ee32b4556b95e20f56f0bc4f3de857caf3c088f4eb879aa8f742a5802206889a8c437ab344645bd5cae4676ba4ad2955c0b3e08672ad1573822405ee16201",
          "0281ec0e4ef87e9762feb5a292086c32bddeda860ac406cc5b2240a9f7e137618d"
        ],
        "sequence": 4294967293
      }
    ],
    "vout": [
      {
        "value": "2.00000000",
        "n": 0,
        "scriptPubKey": {
          "asm": "OP_HASH160 5605c02632e4b36b24a90c230c51e919b483e1fe OP_EQUAL",
          "desc": "addr(2N164zLcDQbULqwWKbsEgH4zY1fQ3q1sjCQ)#t327c587",
          "hex": "a9145605c02632e4b36b24a90c230c51e919b483e1fe87",
          "address": "2N164zLcDQbULqwWKbsEgH4zY1fQ3q1sjCQ",
          "type": "scripthash"
        }
      },
      {
        "value": "1.12490000",
        "n": 1,
        "scriptPubKey": {
          "asm": "OP_HASH160 6d755a3a8f1c932c5199c03b8b1982b939da97b7 OP_EQUAL",
          "desc": "addr(2N3DzDz5zYUDS9zenuuTGeq96Gh1p1coBdA)#3fjtfn5y",
          "hex": "a9146d755a3a8f1c932c5199c03b8b1982b939da97b787",
          "address": "2N3DzDz5zYUDS9zenuuTGeq96Gh1p1coBdA",
          "type": "scripthash"
        }
      }
    ]
  },
  "confirmed_tx": {
    "txid": "774baae98f1a300d91090fbde438dd6db56699afcd93a0b279d86516cedaed1e",
    "hash": "c7631d809652b14e6db1f3007d6edd077df84747c83088925531eff1a97c6fde",
    "version": 2,
    "size": 247,
    "vsize": 166,
    "weight": 661,
    "locktime": 0,
    "vin": [
      {
        "txid": "2911b166463632010f0f2d59a5966d2e5b3b882d9b02b3fa9e198be0c680f976",
        "vout": 0,
        "scriptSig": {
          "asm": "00145c6219a2f8900448b1bc91b57909ca2178011a33",
          "hex": "1600145c6219a2f8900448b1bc91b57909ca2178011a33"
        },
        "txinwitness": [
          "3044022069254ec38ee32b4556b95e20f56f0bc4f3de857caf3c088f4eb879aa8f742a5802206889a8c437ab344645bd5cae4676ba4ad2955c0b3e08672ad1573822405ee16201",
          "0281ec0e4ef87e9762feb5a292086c32bddeda860ac406cc5b2240a9f7e137618d"
        ],
        "sequence": 4294967293
      }
    ],
    "vout": [
      {
        "value": "2.00000000",
        "n": 0,
        "scriptPubKey": {
          "asm": "OP_HASH160 5605c02632e4b36b24a90c230c51e919b483e1fe OP_EQUAL",
          "desc": "addr(2N164zLcDQbULqwWKbsEgH4zY1fQ3q1sjCQ)#t327c587",
          "hex": "a9145605c02632e4b36b24a90c230c51e919b483e1fe87",
          "address": "2N164zLcDQbULqwWKbsEgH4zY1fQ3q1sjCQ",
          "type": "scripthash"
        }
      },
      {
        "value": "1.12490000",
        "n": 1,
        "scriptPubKey": {
          "asm": "OP_HASH160 6d755a3a8f1c932c5199c03b8b1982b939da97b7 OP_EQUAL",
          "desc": "addr(2N3DzDz5zYUDS9zenuuTGeq96Gh1p1coBdA)#3fjtfn5y",
          "hex": "a9146d755a3a8f1c932c5199c03b8b1982b939da97b787",
          "address": "2N3DzDz5zYUDS9zenuuTGeq96Gh1p1coBdA",
          "type": "scripthash"
        }
      }
    ],
    "hex": "0200000000010176f980c6e08b199efab3029b2d883b5b2e6d96a5592d0f0f0132364666b1112900000000171600145c6219a2f8900448b1bc91b57909ca2178011a33fdffffff0200c2eb0b0000000017a9145605c02632e4b36b24a90c230c51e919b483e1fe871076b4060000000017a9146d755a3a8f1c932c5199c03b8b1982b939da97b78702473044022069254ec38ee32b4556b95e20f56f0bc4f3de857caf3c088f4eb879aa8f742a5802206889a8c437ab344645bd5cae4676ba4ad2955c0b3e08672ad1573822405ee16201210281ec0e4ef87e9762feb5a292086c32bddeda860ac406cc5b2240a9f7e137618d00000000"
  },
  "script_analysis": {
    "scriptSig": {
      "asm": "00145c6219a2f8900448b1bc91b57909ca2178011a33",
      "hex": "1600145c6219a2f8900448b1bc91b57909ca2178011a33"
    },
    "witness": [
      "3044022069254ec38ee32b4556b95e20f56f0bc4f3de857caf3c088f4eb879aa8f742a5802206889a8c437ab344645bd5cae4676ba4ad2955c0b3e08672ad1573822405ee16201",
      "0281ec0e4ef87e9762feb5a292086c32bddeda860ac406cc5b2240a9f7e137618d"
    ],
    "scriptPubKeys": [
      {
        "asm": "OP_HASH160 5605c02632e4b36b24a90c230c51e919b483e1fe OP_EQUAL",
        "desc": "addr(2N164zLcDQbULqwWKbsEgH4zY1fQ3q1sjCQ)#t327c587",
        "hex": "a9145605c02632e4b36b24a90c230c51e919b483e1fe87",
        "address": "2N164zLcDQbULqwWKbsEgH4zY1fQ3q1sjCQ",
        "type": "scripthash"
      },
      {
        "asm": "OP_HASH160 6d755a3a8f1c932c5199c03b8b1982b939da97b7 OP_EQUAL",
        "desc": "addr(2N3DzDz5zYUDS9zenuuTGeq96Gh1p1coBdA)#3fjtfn5y",
        "hex": "a9146d755a3a8f1c932c5199c03b8b1982b939da97b787",
        "address": "2N3DzDz5zYUDS9zenuuTGeq96Gh1p1coBdA",
        "type": "scripthash"
      }
    ]
  },
  "size": 247,
  "vsize": 166,
  "weight": 661
}