{
  "txid": "ded13b0b763b5b62c15d9448ab850de8c8cad0be24d4fd2eacdc7b919809fe62",
  "from": "2MseHuHWv2HrT5vuQQcpSyd8voh4cvbjErs",
  "to": "2NDzbuBLSwnQQV7F9MDXaXXr25g7BLWKSiY",
  "amount": 1.0,
  "unsigned_tx": {
    "txid": "c7fd8cdaf009f1aabec3cbd4eaf8f8288ffdc532cd20e856b61e617c1ec46630",
    "hash": "c7fd8cdaf009f1aabec3cbd4eaf8f8288ffdc532cd20e856b61e617c1ec46630",
    "version": 2,
    "size": 115,
    "vsize": 115,
    "weight": 460,
    "locktime": 0,
    "vin": [
      {
        "txid": "ec59ddc4f77ef85ec6925e4745976d56ad97270db9f97dffa5ba470dcc326474",
        "vout": 0,
        "scriptSig": {
          "asm": "",
          "hex": ""
        },
        "sequence": 4294967293
      }
    ],
    "vout": [
      {
        "value": "1.00000000",
        "n": 0,
        "scriptPubKey": {
          "asm": "OP_HASH160 e396b177e03a11dae64f3dfef8b431e026d28198 OP_EQUAL",
          "desc": "addr(2NDzbuBLSwnQQV7F9MDXaXXr25g7BLWKSiY)#ztjug8rs",
          "hex": "a914e396b177e03a11dae64f3dfef8b431e026d2819887",
          "address": "2NDzbuBLSwnQQV7F9MDXaXXr25g7BLWKSiY",
          "type": "scripthash"
        }
      },
      {
        "value": "0.99990000",
        "n": 1,
        "scriptPubKey": {
          "asm": "OP_HASH160 045cd58f134b43d83b9c19ea231fb23df2fc98b5 OP_EQUAL",
          "desc": "addr(2MseHuHWv2HrT5vuQQcpSyd8voh4cvbjErs)#k7k62l4z",
          "hex": "a914045cd58f134b43d83b9c19ea231fb23df2fc98b587",
          "address": "2MseHuHWv2HrT5vuQQcpSyd8voh4cvbjErs",
          "type": "scripthash"
        }
      }
    ]
  },
  "signed_tx": {
    "txid": "ded13b0b763b5b62c15d9448ab850de8c8cad0be24d4fd2eacdc7b919809fe62",
    "hash": "72fd0a899ff8c5e92a57370515df687f05af4f35f570448a907542aaeb156210",
    "version": 2,
    "size": 247,
    "vsize": 166,
    "weight": 661,
    "locktime": 0,
    "vin": [
      {
        "txid": "ec59ddc4f77ef85ec6925e4745976d56ad97270db9f97dffa5ba470dcc326474",
        "vout": 0,
        "scriptSig": {
          "asm": "0014444a86b3439c8b23c9b53a22fd19345de2dc53ae",
          "hex": "160014444a86b3439c8b23c9b53a22fd19345de2dc53ae"
        },
        "txinwitness": [
          "304402200183d0735b3a9d25212277c37e9cf3abed302b6fd28b57e157689456e254477602200e3814487d2e8cdce622275fe76b36c90a23b4c8f6b77ff3679b38b03defcbb801",
          "029d3c3e1515ba0c78d7828d70826e8d4dcb47f6bc5586c35223a6a11a4b2b7473"
        ],
        "sequence": 4294967293
      }
    ],
    "vout": [
      {
        "value": "1.00000000",
        "n": 0,
        "scriptPubKey": {
          "asm": "OP_HASH160 e396b177e03a11dae64f3dfef8b431e026d28198 OP_EQUAL",
          "desc": "addr(2NDzbuBLSwnQQV7F9MDXaXXr25g7BLWKSiY)#ztjug8rs",
          "hex": "a914e396b177e03a11dae64f3dfef8b431e026d2819887",
          "address": "2NDzbuBLSwnQQV7F9MDXaXXr25g7BLWKSiY",
          "type": "scripthash"
        }
      },
      {
        "value": "0.99990000",
        "n": 1,
        "scriptPubKey": {
          "asm": "OP_HASH160 045cd58f134b43d83b9c19ea231fb23df2fc98b5 OP_EQUAL",
          "desc": "addr(2MseHuHWv2HrT5vuQQcpSyd8voh4cvbjErs)#k7k62l4z",
          "hex": "a914045cd58f134b43d83b9c19ea231fb23df2fc98b587",
          "address": "2MseHuHWv2HrT5vuQQcpSyd8voh4cvbjErs",
          "type": "scripthash"
        }
      }
    ]
  },
  "confirmed_tx": {
    "txid": "ded13b0b763b5b62c15d9448ab850de8c8cad0be24d4fd2eacdc7b919809fe62",
    "hash": "72fd0a899ff8c5e92a57370515df687f05af4f35f570448a907542aaeb156210",
    "version": 2,
    "size": 247,
    "vsize": 166,
    "weight": 661,
    "locktime": 0,
    "vin": [
      {
        "txid": "ec59ddc4f77ef85ec6925e4745976d56ad97270db9f97dffa5ba470dcc326474",
        "vout": 0,
        "scriptSig": {
          "asm": "0014444a86b3439c8b23c9b53a22fd19345de2dc53ae",
          "hex": "160014444a86b3439c8b23c9b53a22fd19345de2dc53ae"
        },
        "txinwitness": [
          "304402200183d0735b3a9d25212277c37e9cf3abed302b6fd28b57e157689456e254477602200e3814487d2e8cdce622275fe76b36c90a23b4c8f6b77ff3679b38b03defcbb801",
          "029d3c3e1515ba0c78d7828d70826e8d4dcb47f6bc5586c35223a6a11a4b2b7473"
        ],
        "sequence": 4294967293
      }
    ],
    "vout": [
      {
        "value": "1.00000000",
        "n": 0,
        "scriptPubKey": {
          "asm": "OP_HASH160 e396b177e03a11dae64f3dfef8b431e026d28198 OP_EQUAL",
          "desc": "addr(2NDzbuBLSwnQQV7F9MDXaXXr25g7BLWKSiY)#ztjug8rs",
          "hex": "a914e396b177e03a11dae64f3dfef8b431e026d2819887",
          "address": "2NDzbuBLSwnQQV7F9MDXaXXr25g7BLWKSiY",
          "type": "scripthash"
        }
      },
      {
        "value": "0.99990000",
        "n": 1,
        "scriptPubKey": {
          "asm": "OP_HASH160 045cd58f134b43d83b9c19ea231fb23df2fc98b5 OP_EQUAL",
          "desc": "addr(2MseHuHWv2HrT5vuQQcpSyd8voh4cvbjErs)#k7k62l4z",
          "hex": "a914045cd58f134b43d83b9c19ea231fb23df2fc98b587",
          "address": "2MseHuHWv2HrT5vuQQcpSyd8voh4cvbjErs",
          "type": "scripthash"
        }
      }
    ],
    "hex": "02000000000101746432cc0d47baa5ff7df9b90d2797ad566d9745475e92c65ef87ef7c4dd59ec0000000017160014444a86b3439c8b23c9b53a22fd19345de2dc53aefdffffff0200e1f5050000000017a914e396b177e03a11dae64f3dfef8b431e026d2819887f0b9f5050000000017a914045cd58f134b43d83b9c19ea231fb23df2fc98b5870247304402200183d0735b3a9d25212277c37e9cf3abed302b6fd28b57e157689456e254477602200e3814487d2e8cdce622275fe76b36c90a23b4c8f6b77ff3679b38b03defcbb80121029d3c3e1515ba0c78d7828d70826e8d4dcb47f6bc5586c35223a6a11a4b2b747300000000"
  },
  "script_analysis": {
    "scriptSig_asm": "0014444a86b3439c8b23c9b53a22fd19345de2dc53ae",
    "scriptSig_hex": "160014444a86b3439c8b23c9b53a22fd19345de2dc53ae",
    "witness": [
      "304402200183d0735b3a9d25212277c37e9cf3abed302b6fd28b57e157689456e254477602200e3814487d2e8cdce622275fe76b36c90a23b4c8f6b77ff3679b38b03defcbb801",
      "029d3c3e1515ba0c78d7828d70826e8d4dcb47f6bc5586c35223a6a11a4b2b7473"
    ],
    "scriptPubKeys": [
      {
        "asm": "OP_HASH160 e396b177e03a11dae64f3dfef8b431e026d28198 OP_EQUAL",
        "type": "scripthash",
        "hex": "a914e396b177e03a11dae64f3dfef8b431e026d2819887"
      },
      {
        "asm": "OP_HASH160 045cd58f134b43d83b9c19ea231fb23df2fc98b5 OP_EQUAL",
        "type": "scripthash",
        "hex": "a914045cd58f134b43d83b9c19ea231fb23df2fc98b587"
      }
    ]
  },
  "size": 247,
  "vsize": 166,
  "weight": 661
}