{
  "txid": "45e81363f4c5def3daa2c18f5e49e75f52e7b7165751055be44c680cbff69fbe",
  "from": "2MstCB5yStq2Dy11CumWuQYi4eLD8MSb48y",
  "to": "2N7NGMvHPGNoGSHCggB5nPWwUMQmGjDk9L1",
  "amount": 2.0,
  "unsigned_tx": {
    "txid": "7550a04c56d5d20e77245b03372b331490231da48580b01ce6ca414b986f997a",
    "hash": "7550a04c56d5d20e77245b03372b331490231da48580b01ce6ca414b986f997a",
    "version": 2,
    "size": 115,
    "vsize": 115,
    "weight": 460,
    "locktime": 0,
    "vin": [
      {
        "txid": "09b217168d2acb85e1609b718223ff337211aa5acb832403e937b37b94850997",
        "vout": 0,
        "scriptSig": {
          "asm": "",
          "hex": ""
        },
        "sequence": 4294967293
      }
    ],
    "vout": [
      {
        "value": "2.00000000",
        "n": 0,
        "scriptPubKey": {
          "asm": "OP_HASH160 9ae6a752db5592982791659bf9d250465ad3cc31 OP_EQUAL",
          "desc": "addr(2N7NGMvHPGNoGSHCggB5nPWwUMQmGjDk9L1)#vc96vfgd",
          "hex": "a9149ae6a752db5592982791659bf9d250465ad3cc3187",
          "address": "2N7NGMvHPGNoGSHCggB5nPWwUMQmGjDk9L1",
          "type": "scripthash"
        }
      },
      {
        "value": "47.99990000",
        "n": 1,
        "scriptPubKey": {
          "asm": "OP_HASH160 06fde0654999c593a7633a76ff0d995559dc9b1d OP_EQUAL",
          "desc": "addr(2MstCB5yStq2Dy11CumWuQYi4eLD8MSb48y)#kgekzprn",
          "hex": "a91406fde0654999c593a7633a76ff0d995559dc9b1d87",
          "address": "2MstCB5yStq2Dy11CumWuQYi4eLD8MSb48y",
          "type": "scripthash"
        }
      }
    ]
  },
  "signed_tx": {
    "txid": "45e81363f4c5def3daa2c18f5e49e75f52e7b7165751055be44c680cbff69fbe",
    "hash": "918c16c10586c9485f92f7c8b6d3cd5a14346f281061ac98601377bc3537d69e",
    "version": 2,
    "size": 247,
    "vsize": 166,
    "weight": 661,
    "locktime": 0,
    "vin": [
      {
        "txid": "09b217168d2acb85e1609b718223ff337211aa5acb832403e937b37b94850997",
        "vout": 0,
        "scriptSig": {
          "asm": "001495ce1812936cb595f99dcb02dd2ac60c3437e024",
          "hex": "16001495ce1812936cb595f99dcb02dd2ac60c3437e024"
        },
        "txinwitness": [
          "304402201354fd4ec5357038f569d5c1d69ce37a2610a7d4e323c1fece423992670ebf8c02204f0083709aab81730c14d33e6a3f473d2f700ca43d52f87d98d251100e80092d01",
          "024581e784c371bf06f5eaa93f4194f064ccb6510d13d645bb0274aad6fb624ea4"
        ],
        "sequence": 4294967293
      }
    ],
    "vout": [
      {
        "value": "2.00000000",
        "n": 0,
        "scriptPubKey": {
          "asm": "OP_HASH160 9ae6a752db5592982791659bf9d250465ad3cc31 OP_EQUAL",
          "desc": "addr(2N7NGMvHPGNoGSHCggB5nPWwUMQmGjDk9L1)#vc96vfgd",
          "hex": "a9149ae6a752db5592982791659bf9d250465ad3cc3187",
          "address": "2N7NGMvHPGNoGSHCggB5nPWwUMQmGjDk9L1",
          "type": "scripthash"
        }
      },
      {
        "value": "47.99990000",
        "n": 1,
        "scriptPubKey": {
          "asm": "OP_HASH160 06fde0654999c593a7633a76ff0d995559dc9b1d OP_EQUAL",
          "desc": "addr(2MstCB5yStq2Dy11CumWuQYi4eLD8MSb48y)#kgekzprn",
          "hex": "a91406fde0654999c593a7633a76ff0d995559dc9b1d87",
          "address": "2MstCB5yStq2Dy11CumWuQYi4eLD8MSb48y",
          "type": "scripthash"
        }
      }
    ]
  },
  "confirmed_tx": {
    "txid": "45e81363f4c5def3daa2c18f5e49e75f52e7b7165751055be44c680cbff69fbe",
    "hash": "918c16c10586c9485f92f7c8b6d3cd5a14346f281061ac98601377bc3537d69e",
    "version": 2,
    "size": 247,
    "vsize": 166,
    "weight": 661,
    "locktime": 0,
    "vin": [
      {
        "txid": "09b217168d2acb85e1609b718223ff337211aa5acb832403e937b37b94850997",
        "vout": 0,
        "scriptSig": {
          "asm": "001495ce1812936cb595f99dcb02dd2ac60c3437e024",
          "hex": "16001495ce1812936cb595f99dcb02dd2ac60c3437e024"
        },
        "txinwitness": [
          "304402201354fd4ec5357038f569d5c1d69ce37a2610a7d4e323c1fece423992670ebf8c02204f0083709aab81730c14d33e6a3f473d2f700ca43d52f87d98d251100e80092d01",
          "024581e784c371bf06f5eaa93f4194f064ccb6510d13d645bb0274aad6fb624ea4"
        ],
        "sequence": 4294967293
      }
    ],
    "vout": [
      {
        "value": "2.00000000",
        "n": 0,
        "scriptPubKey": {
          "asm": "OP_HASH160 9ae6a752db5592982791659bf9d250465ad3cc31 OP_EQUAL",
          "desc": "addr(2N7NGMvHPGNoGSHCggB5nPWwUMQmGjDk9L1)#vc96vfgd",
          "hex": "a9149ae6a752db5592982791659bf9d250465ad3cc3187",
          "address": "2N7NGMvHPGNoGSHCggB5nPWwUMQmGjDk9L1",
          "type": "scripthash"
        }
      },
      {
        "value": "47.99990000",
        "n": 1,
        "scriptPubKey": {
          "asm": "OP_HASH160 06fde0654999c593a7633a76ff0d995559dc9b1d OP_EQUAL",
          "desc": "addr(2MstCB5yStq2Dy11CumWuQYi4eLD8MSb48y)#kgekzprn",
          "hex": "a91406fde0654999c593a7633a76ff0d995559dc9b1d87",
          "address": "2MstCB5yStq2Dy11CumWuQYi4eLD8MSb48y",
          "type": "scripthash"
        }
      }
    ],
    "hex": "02000000000101970985947bb337e9032483cb5aaa117233ff2382719b60e185cb2a8d1617b209000000001716001495ce1812936cb595f99dcb02dd2ac60c3437e024fdffffff0200c2eb0b0000000017a9149ae6a752db5592982791659bf9d250465ad3cc3187f0081a1e0100000017a91406fde0654999c593a7633a76ff0d995559dc9b1d870247304402201354fd4ec5357038f569d5c1d69ce37a2610a7d4e323c1fece423992670ebf8c02204f0083709aab81730c14d33e6a3f473d2f700ca43d52f87d98d251100e80092d0121024581e784c371bf06f5eaa93f4194f064ccb6510d13d645bb0274aad6fb624ea400000000"
  },
  "script_analysis": {
    "scriptSig": {
      "asm": "001495ce1812936cb595f99dcb02dd2ac60c3437e024",
      "hex": "16001495ce1812936cb595f99dcb02dd2ac60c3437e024"
    },
    "witness": [
      "304402201354fd4ec5357038f569d5c1d69ce37a2610a7d4e323c1fece423992670ebf8c02204f0083709aab81730c14d33e6a3f473d2f700ca43d52f87d98d251100e80092d01",
      "024581e784c371bf06f5eaa93f4194f064ccb6510d13d645bb0274aad6fb624ea4"
    ],
    "scriptPubKeys": [
      {
        "asm": "OP_HASH160 9ae6a752db5592982791659bf9d250465ad3cc31 OP_EQUAL",
        "desc": "addr(2N7NGMvHPGNoGSHCggB5nPWwUMQmGjDk9L1)#vc96vfgd",
        "hex": "a9149ae6a752db5592982791659bf9d250465ad3cc3187",
        "address": "2N7NGMvHPGNoGSHCggB5nPWwUMQmGjDk9L1",
        "type": "scripthash"
      },
      {
        "asm": "OP_HASH160 06fde0654999c593a7633a76ff0d995559dc9b1d OP_EQUAL",
        "desc": "addr(2MstCB5yStq2Dy11CumWuQYi4eLD8MSb48y)#kgekzprn",
        "hex": "a91406fde0654999c593a7633a76ff0d995559dc9b1d87",
        "address": "2MstCB5yStq2Dy11CumWuQYi4eLD8MSb48y",
        "type": "scripthash"
      }
    ]
  },
  "size": 247,
  "vsize": 166,
  "weight": 661
}