{
  "txid": "a0cb51fd655c84d2c1e79299135274db352e523af5961c4046a58b38778e8cf5",
  "from": "2MzX1FBMa23bhm8btFSEBd8umx3kKGcRbjk",
  "to": "2MtjGUJuJhxUkcXkqFtpMZ1viaETimWrbGL",
  "amount": 2.0,
  "unsigned_tx": {
    "txid": "b33718a3fb77f645cc6358ec5bdfdc5d0dd70e208d627c2a98221a18859ca08f",
    "hash": "b33718a3fb77f645cc6358ec5bdfdc5d0dd70e208d627c2a98221a18859ca08f",
    "version": 2,
    "size": 115,
    "vsize": 115,
    "weight": 460,
    "locktime": 0,
    "vin": [
      {
        "txid": "097074e84e626f6c9f1dd1ad5fc8cac8d370a70d4c47564e717a7bd70162ab01",
        "vout": 0,
        "scriptSig": {
          "asm": "",
          "hex": ""
        },
        "sequence": 4294967293
      }
    ],
    "vout": [
      {
        "value": "2.00000000",
        "n": 0,
        "scriptPubKey": {
          "asm": "OP_HASH160 1045d8782b716783c6867f99069979482169063d OP_EQUAL",
          "desc": "addr(2MtjGUJuJhxUkcXkqFtpMZ1viaETimWrbGL)#ah83t0qx",
          "hex": "a9141045d8782b716783c6867f99069979482169063d87",
          "address": "2MtjGUJuJhxUkcXkqFtpMZ1viaETimWrbGL",
          "type": "scripthash"
        }
      },
      {
        "value": "10.49990000",
        "n": 1,
        "scriptPubKey": {
          "asm": "OP_HASH160 4fc4e5fda75afcfe773feeeb6a59fe71645925ed OP_EQUAL",
          "desc": "addr(2MzX1FBMa23bhm8btFSEBd8umx3kKGcRbjk)#u27zdack",
          "hex": "a9144fc4e5fda75afcfe773feeeb6a59fe71645925ed87",
          "address": "2MzX1FBMa23bhm8btFSEBd8umx3kKGcRbjk",
          "type": "scripthash"
        }
      }
    ]
  },
  "signed_tx": {
    "txid": "a0cb51fd655c84d2c1e79299135274db352e523af5961c4046a58b38778e8cf5",
    "hash": "cf9926bdb13df014ebefb4ea56a961510b29bc0e778249ac3e00c6793ddc6299",
    "version": 2,
    "size": 247,
    "vsize": 166,
    "weight": 661,
    "locktime": 0,
    "vin": [
      {
        "txid": "097074e84e626f6c9f1dd1ad5fc8cac8d370a70d4c47564e717a7bd70162ab01",
        "vout": 0,
        "scriptSig": {
          "asm": "0014245ca923a488c6fe247cddc3a3a689ff4bebfca4",
          "hex": "160014245ca923a488c6fe247cddc3a3a689ff4bebfca4"
        },
        "txinwitness": [
          "304402200397e83cb136ff7697c4e42350c5d24a3c7e8de698c45b15069b983d5310ebed022022a7ca3a2bc73f8955cd45e4d6e3ec80e26f17c8ef0c0a5a6820fdbc2042f66a01",
          "02ac12e46cb78cfa5f2d908224a7a847228d5c511d77ee96013ebd0a6fcd2661f7"
        ],
        "sequence": 4294967293
      }
    ],
    "vout": [
      {
        "value": "2.00000000",
        "n": 0,
        "scriptPubKey": {
          "asm": "OP_HASH160 1045d8782b716783c6867f99069979482169063d OP_EQUAL",
          "desc": "addr(2MtjGUJuJhxUkcXkqFtpMZ1viaETimWrbGL)#ah83t0qx",
          "hex": "a9141045d8782b716783c6867f99069979482169063d87",
          "address": "2MtjGUJuJhxUkcXkqFtpMZ1viaETimWrbGL",
          "type": "scripthash"
        }
      },
      {
        "value": "10.49990000",
        "n": 1,
        "scriptPubKey": {
          "asm": "OP_HASH160 4fc4e5fda75afcfe773feeeb6a59fe71645925ed OP_EQUAL",
          "desc": "addr(2MzX1FBMa23bhm8btFSEBd8umx3kKGcRbjk)#u27zdack",
          "hex": "a9144fc4e5fda75afcfe773feeeb6a59fe71645925ed87",
          "address": "2MzX1FBMa23bhm8btFSEBd8umx3kKGcRbjk",
          "type": "scripthash"
        }
      }
    ]
  },
  "confirmed_tx": {
    "txid": "a0cb51fd655c84d2c1e79299135274db352e523af5961c4046a58b38778e8cf5",
    "hash": "cf9926bdb13df014ebefb4ea56a961510b29bc0e778249ac3e00c6793ddc6299",
    "version": 2,
    "size": 247,
    "vsize": 166,
    "weight": 661,
    "locktime": 0,
    "vin": [
      {
        "txid": "097074e84e626f6c9f1dd1ad5fc8cac8d370a70d4c47564e717a7bd70162ab01",
        "vout": 0,
        "scriptSig": {
          "asm": "0014245ca923a488c6fe247cddc3a3a689ff4bebfca4",
          "hex": "160014245ca923a488c6fe247cddc3a3a689ff4bebfca4"
        },
        "txinwitness": [
          "304402200397e83cb136ff7697c4e42350c5d24a3c7e8de698c45b15069b983d5310ebed022022a7ca3a2bc73f8955cd45e4d6e3ec80e26f17c8ef0c0a5a6820fdbc2042f66a01",
          "02ac12e46cb78cfa5f2d908224a7a847228d5c511d77ee96013ebd0a6fcd2661f7"
        ],
        "sequence": 4294967293
      }
    ],
    "vout": [
      {
        "value": "2.00000000",
        "n": 0,
        "scriptPubKey": {
          "asm": "OP_HASH160 1045d8782b716783c6867f99069979482169063d OP_EQUAL",
          "desc": "addr(2MtjGUJuJhxUkcXkqFtpMZ1viaETimWrbGL)#ah83t0qx",
          "hex": "a9141045d8782b716783c6867f99069979482169063d87",
          "address": "2MtjGUJuJhxUkcXkqFtpMZ1viaETimWrbGL",
          "type": "scripthash"
        }
      },
      {
        "value": "10.49990000",
        "n": 1,
        "scriptPubKey": {
          "asm": "OP_HASH160 4fc4e5fda75afcfe773feeeb6a59fe71645925ed OP_EQUAL",
          "desc": "addr(2MzX1FBMa23bhm8btFSEBd8umx3kKGcRbjk)#u27zdack",
          "hex": "a9144fc4e5fda75afcfe773feeeb6a59fe71645925ed87",
          "address": "2MzX1FBMa23bhm8btFSEBd8umx3kKGcRbjk",
          "type": "scripthash"
        }
      }
    ],
    "hex": "0200000000010101ab6201d77b7a714e56474c0da770d3c8cac85fadd11d9f6c6f624ee87470090000000017160014245ca923a488c6fe247cddc3a3a689ff4bebfca4fdffffff0200c2eb0b0000000017a9141045d8782b716783c6867f99069979482169063d877093953e0000000017a9144fc4e5fda75afcfe773feeeb6a59fe71645925ed870247304402200397e83cb136ff7697c4e42350c5d24a3c7e8de698c45b15069b983d5310ebed022022a7ca3a2bc73f8955cd45e4d6e3ec80e26f17c8ef0c0a5a6820fdbc2042f66a012102ac12e46cb78cfa5f2d908224a7a847228d5c511d77ee96013ebd0a6fcd2661f700000000"
  },
  "script_analysis": {
    "scriptSig": {
      "asm": "0014245ca923a488c6fe247cddc3a3a689ff4bebfca4",
      "hex": "160014245ca923a488c6fe247cddc3a3a689ff4bebfca4"
    },
    "witness": [
      "304402200397e83cb136ff7697c4e42350c5d24a3c7e8de698c45b15069b983d5310ebed022022a7ca3a2bc73f8955cd45e4d6e3ec80e26f17c8ef0c0a5a6820fdbc2042f66a01",
      "02ac12e46cb78cfa5f2d908224a7a847228d5c511d77ee96013ebd0a6fcd2661f7"
    ],
    "scriptPubKeys": [
      {
        "asm": "OP_HASH160 1045d8782b716783c6867f99069979482169063d OP_EQUAL",
        "desc": "addr(2MtjGUJuJhxUkcXkqFtpMZ1viaETimWrbGL)#ah83t0qx",
        "hex": "a9141045d8782b716783c6867f99069979482169063d87",
        "address": "2MtjGUJuJhxUkcXkqFtpMZ1viaETimWrbGL",
        "type": "scripthash"
      },
      {
        "asm": "OP_HASH160 4fc4e5fda75afcfe773feeeb6a59fe71645925ed OP_EQUAL",
        "desc": "addr(2MzX1FBMa23bhm8btFSEBd8umx3kKGcRbjk)#u27zdack",
        "hex": "a9144fc4e5fda75afcfe773feeeb6a59fe71645925ed87",
        "address": "2MzX1FBMa23bhm8btFSEBd8umx3kKGcRbjk",
        "type": "scripthash"
      }
    ]
  },
  "size": 247,
  "vsize": 166,
  "weight": 661
}