{
  "txid": "28dc337bceb52bc6550d7528b622b5f1cb5d45144631b048aa719922135286a2",
  "from": "2N164zLcDQbULqwWKbsEgH4zY1fQ3q1sjCQ",
  "to": "2N1ybrKaqanwqD3msLYPUrawnU85dK1MsAf",
  "amount": 1.0,
  "unsigned_tx": {
    "txid": "f2498e5d526acd2731b0e8d7998c873957219048b4e35d6caee77211281cd03b",
    "hash": "f2498e5d526acd2731b0e8d7998c873957219048b4e35d6caee77211281cd03b",
    "version": 2,
    "size": 115,
    "vsize": 115,
    "weight": 460,
    "locktime": 0,
    "vin": [
      {
        "txid": "774baae98f1a300d91090fbde438dd6db56699afcd93a0b279d86516cedaed1e",
        "vout": 0,
        "scriptSig": {
          "asm": "",
          "hex": ""
        },
        "sequence": 4294967293
      }
    ],
    "vout": [
      {
        "value": "1.00000000",
        "n": 0,
        "scriptPubKey": {
          "asm": "OP_HASH160 5fc4ba0b7e553c0f6cdf17006c5391b8ac0078fe OP_EQUAL",
          "desc": "addr(2N1ybrKaqanwqD3msLYPUrawnU85dK1MsAf)#47602kpd",
          "hex": "a9145fc4ba0b7e553c0f6cdf17006c5391b8ac0078fe87",
          "address": "2N1ybrKaqanwqD3msLYPUrawnU85dK1MsAf",
          "type": "scripthash"
        }
      },
      {
        "value": "0.99990000",
        "n": 1,
        "scriptPubKey": {
          "asm": "OP_HASH160 5605c02632e4b36b24a90c230c51e919b483e1fe OP_EQUAL",
          "desc": "addr(2N164zLcDQbULqwWKbsEgH4zY1fQ3q1sjCQ)#t327c587",
          "hex": "a9145605c02632e4b36b24a90c230c51e919b483e1fe87",
          "address": "2N164zLcDQbULqwWKbsEgH4zY1fQ3q1sjCQ",
          "type": "scripthash"
        }
      }
    ]
  },
  "signed_tx": {
    "txid": "28dc337bceb52bc6550d7528b622b5f1cb5d45144631b048aa719922135286a2",
    "hash": "d47768ffeda0c88dd6ee255335a236133d2c6486614ae8bd64485536fba59a1c",
    "version": 2,
    "size": 247,
    "vsize": 166,
    "weight": 661,
    "locktime": 0,
    "vin": [
      {
        "txid": "774baae98f1a300d91090fbde438dd6db56699afcd93a0b279d86516cedaed1e",
        "vout": 0,
        "scriptSig": {
          "asm": "001480758d016236205cc55c42714af7d77ab933ea29",
          "hex": "16001480758d016236205cc55c42714af7d77ab933ea29"
        },
        "txinwitness": [
          "304402201aab6b7edac6611a51e4797e1bc7291a78331233d47c9cd02889ee67c0c4fca402204473ba10eda4c4e0ee5b3f3c39c5104977f5a2daef29091bbdfff80c791c0f3901",
          "02626d6410e93fa801b0fb15894dc950aef38cc8cfe80658114f66dc064c5d1e86"
        ],
        "sequence": 4294967293
      }
    ],
    "vout": [
      {
        "value": "1.00000000",
        "n": 0,
        "scriptPubKey": {
          "asm": "OP_HASH160 5fc4ba0b7e553c0f6cdf17006c5391b8ac0078fe OP_EQUAL",
          "desc": "addr(2N1ybrKaqanwqD3msLYPUrawnU85dK1MsAf)#47602kpd",
          "hex": "a9145fc4ba0b7e553c0f6cdf17006c5391b8ac0078fe87",
          "address": "2N1ybrKaqanwqD3msLYPUrawnU85dK1MsAf",
          "type": "scripthash"
        }
      },
      {
        "value": "0.99990000",
        "n": 1,
        "scriptPubKey": {
          "asm": "OP_HASH160 5605c02632e4b36b24a90c230c51e919b483e1fe OP_EQUAL",
          "desc": "addr(2N164zLcDQbULqwWKbsEgH4zY1fQ3q1sjCQ)#t327c587",
          "hex": "a9145605c02632e4b36b24a90c230c51e919b483e1fe87",
          "address": "2N164zLcDQbULqwWKbsEgH4zY1fQ3q1sjCQ",
          "type": "scripthash"
        }
      }
    ]
  },
  "confirmed_tx": {
    "txid": "28dc337bceb52bc6550d7528b622b5f1cb5d45144631b048aa719922135286a2",
    "hash": "d47768ffeda0c88dd6ee255335a236133d2c6486614ae8bd64485536fba59a1c",
    "version": 2,
    "size": 247,
    "vsize": 166,
    "weight": 661,
    "locktime": 0,
    "vin": [
      {
        "txid": "774baae98f1a300d91090fbde438dd6db56699afcd93a0b279d86516cedaed1e",
        "vout": 0,
        "scriptSig": {
          "asm": "001480758d016236205cc55c42714af7d77ab933ea29",
          "hex": "16001480758d016236205cc55c42714af7d77ab933ea29"
        },
        "txinwitness": [
          "304402201aab6b7edac6611a51e4797e1bc7291a78331233d47c9cd02889ee67c0c4fca402204473ba10eda4c4e0ee5b3f3c39c5104977f5a2daef29091bbdfff80c791c0f3901",
          "02626d6410e93fa801b0fb15894dc950aef38cc8cfe80658114f66dc064c5d1e86"
        ],
        "sequence": 4294967293
      }
    ],
    "vout": [
      {
        "value": "1.00000000",
        "n": 0,
        "scriptPubKey": {
          "asm": "OP_HASH160 5fc4ba0b7e553c0f6cdf17006c5391b8ac0078fe OP_EQUAL",
          "desc": "addr(2N1ybrKaqanwqD3msLYPUrawnU85dK1MsAf)#47602kpd",
          "hex": "a9145fc4ba0b7e553c0f6cdf17006c5391b8ac0078fe87",
          "address": "2N1ybrKaqanwqD3msLYPUrawnU85dK1MsAf",
          "type": "scripthash"
        }
      },
      {
        "value": "0.99990000",
        "n": 1,
        "scriptPubKey": {
          "asm": "OP_HASH160 5605c02632e4b36b24a90c230c51e919b483e1fe OP_EQUAL",
          "desc": "addr(2N164zLcDQbULqwWKbsEgH4zY1fQ3q1sjCQ)#t327c587",
          "hex": "a9145605c02632e4b36b24a90c230c51e919b483e1fe87",
          "address": "2N164zLcDQbULqwWKbsEgH4zY1fQ3q1sjCQ",
          "type": "scripthash"
        }
      }
    ],
    "hex": "020000000001011eeddace1665d879b2a093cdaf9966b56ddd38e4bd0f09910d301a8fe9aa4b77000000001716001480758d016236205cc55c42714af7d77ab933ea29fdffffff0200e1f5050000000017a9145fc4ba0b7e553c0f6cdf17006c5391b8ac0078fe87f0b9f5050000000017a9145605c02632e4b36b24a90c230c51e919b483e1fe870247304402201aab6b7edac6611a51e4797e1bc7291a78331233d47c9cd02889ee67c0c4fca402204473ba10eda4c4e0ee5b3f3c39c5104977f5a2daef29091bbdfff80c791c0f39012102626d6410e93fa801b0fb15894dc950aef38cc8cfe80658114f66dc064c5d1e8600000000"
  },
  "script_analysis": {
    "scriptSig": {
      "asm": "001480758d016236205cc55c42714af7d77ab933ea29",
      "hex": "16001480758d016236205cc55c42714af7d77ab933ea29"
    },
    "witness": [
      "304402201aab6b7edac6611a51e4797e1bc7291a78331233d47c9cd02889ee67c0c4fca402204473ba10eda4c4e0ee5b3f3c39c5104977f5a2daef29091bbdfff80c791c0f3901",
      "02626d6410e93fa801b0fb15894dc950aef38cc8cfe80658114f66dc064c5d1e86"
    ],
    "scriptPubKeys": [
      {
        "asm": "OP_HASH160 5fc4ba0b7e553c0f6cdf17006c5391b8ac0078fe OP_EQUAL",
        "desc": "addr(2N1ybrKaqanwqD3msLYPUrawnU85dK1MsAf)#47602kpd",
        "hex": "a9145fc4ba0b7e553c0f6cdf17006c5391b8ac0078fe87",
        "address": "2N1ybrKaqanwqD3msLYPUrawnU85dK1MsAf",
        "type": "scripthash"
      },
      {
        "asm": "OP_HASH160 5605c02632e4b36b24a90c230c51e919b483e1fe OP_EQUAL",
        "desc": "addr(2N164zLcDQbULqwWKbsEgH4zY1fQ3q1sjCQ)#t327c587",
        "hex": "a9145605c02632e4b36b24a90c230c51e919b483e1fe87",
        "address": "2N164zLcDQbULqwWKbsEgH4zY1fQ3q1sjCQ",
        "type": "scripthash"
      }
    ]
  },
  "size": 247,
  "vsize": 166,
  "weight": 661
}