{
  "txid": "b5940e1845b3c19d9d4b8b22c375bce38d7ec6567b41b891e91191fce38145d1",
  "from": "2N7NGMvHPGNoGSHCggB5nPWwUMQmGjDk9L1",
  "to": "2NCCxhAhZTuGZdQoPXVH6nizdw9hxzedzyp",
  "amount": 1.0,
  "unsigned_tx": {
    "txid": "18a7740c3adb2f8106eadc0ab2325c92e9556f8bd0e0169dff125a896d7d42ab",
    "hash": "18a7740c3adb2f8106eadc0ab2325c92e9556f8bd0e0169dff125a896d7d42ab",
    "version": 2,
    "size": 115,
    "vsize": 115,
    "weight": 460,
    "locktime": 0,
    "vin": [
      {
        "txid": "45e81363f4c5def3daa2c18f5e49e75f52e7b7165751055be44c680cbff69fbe",
        "vout": 0,
        "scriptSig": {
          "asm": "",
          "hex": ""
        },
        "sequence": 4294967293
      }
    ],
    "vout": [
      {
        "value": "1.00000000",
        "n": 0,
        "scriptPubKey": {
          "asm": "OP_HASH160 cffcca4e7d7982dcea10970e905ec743d8661f8d OP_EQUAL",
          "desc": "addr(2NCCxhAhZTuGZdQoPXVH6nizdw9hxzedzyp)#sdhmhu4l",
          "hex": "a914cffcca4e7d7982dcea10970e905ec743d8661f8d87",
          "address": "2NCCxhAhZTuGZdQoPXVH6nizdw9hxzedzyp",
          "type": "scripthash"
        }
      },
      {
        "value": "0.99990000",
        "n": 1,
        "scriptPubKey": {
          "asm": "OP_HASH160 9ae6a752db5592982791659bf9d250465ad3cc31 OP_EQUAL",
          "desc": "addr(2N7NGMvHPGNoGSHCggB5nPWwUMQmGjDk9L1)#vc96vfgd",
          "hex": "a9149ae6a752db5592982791659bf9d250465ad3cc3187",
          "address": "2N7NGMvHPGNoGSHCggB5nPWwUMQmGjDk9L1",
          "type": "scripthash"
        }
      }
    ]
  },
  "signed_tx": {
    "txid": "b5940e1845b3c19d9d4b8b22c375bce38d7ec6567b41b891e91191fce38145d1",
    "hash": "fca64737df16ac3c5b6c168f0881c84386a3818176c7a42fc14eef0b3ee7ca62",
    "version": 2,
    "size": 247,
    "vsize": 166,
    "weight": 661,
    "locktime": 0,
    "vin": [
      {
        "txid": "45e81363f4c5def3daa2c18f5e49e75f52e7b7165751055be44c680cbff69fbe",
        "vout": 0,
        "scriptSig": {
          "asm": "0014b7352cca6a6c51761e237b7427c4f8aacfea12cc",
          "hex": "160014b7352cca6a6c51761e237b7427c4f8aacfea12cc"
        },
        "txinwitness": [
          "3044022001d59f10c08a8bd5a15675fd191ab9b9e461598711533f63b0dbb14eb10b368102202275aaa401daaa8e3f551f032df62bdfaa26b5f94776b33adeaa0bcd53e0621e01",
          "032a1c2a4f98dc8e16b65970288a0bc735456d655d62f93a5b58c29ca78fa6b328"
        ],
        "sequence": 4294967293
      }
    ],
    "vout": [
      {
        "value": "1.00000000",
        "n": 0,
        "scriptPubKey": {
          "asm": "OP_HASH160 cffcca4e7d7982dcea10970e905ec743d8661f8d OP_EQUAL",
          "desc": "addr(2NCCxhAhZTuGZdQoPXVH6nizdw9hxzedzyp)#sdhmhu4l",
          "hex": "a914cffcca4e7d7982dcea10970e905ec743d8661f8d87",
          "address": "2NCCxhAhZTuGZdQoPXVH6nizdw9hxzedzyp",
          "type": "scripthash"
        }
      },
      {
        "value": "0.99990000",
        "n": 1,
        "scriptPubKey": {
          "asm": "OP_HASH160 9ae6a752db5592982791659bf9d250465ad3cc31 OP_EQUAL",
          "desc": "addr(2N7NGMvHPGNoGSHCggB5nPWwUMQmGjDk9L1)#vc96vfgd",
          "hex": "a9149ae6a752db5592982791659bf9d250465ad3cc3187",
          "address": "2N7NGMvHPGNoGSHCggB5nPWwUMQmGjDk9L1",
          "type": "scripthash"
        }
      }
    ]
  },
  "confirmed_tx": {
    "txid": "b5940e1845b3c19d9d4b8b22c375bce38d7ec6567b41b891e91191fce38145d1",
    "hash": "fca64737df16ac3c5b6c168f0881c84386a3818176c7a42fc14eef0b3ee7ca62",
    "version": 2,
    "size": 247,
    "vsize": 166,
    "weight": 661,
    "locktime": 0,
    "vin": [
      {
        "txid": "45e81363f4c5def3daa2c18f5e49e75f52e7b7165751055be44c680cbff69fbe",
        "vout": 0,
        "scriptSig": {
          "asm": "0014b7352cca6a6c51761e237b7427c4f8aacfea12cc",
          "hex": "160014b7352cca6a6c51761e237b7427c4f8aacfea12cc"
        },
        "txinwitness": [
          "3044022001d59f10c08a8bd5a15675fd191ab9b9e461598711533f63b0dbb14eb10b368102202275aaa401daaa8e3f551f032df62bdfaa26b5f94776b33adeaa0bcd53e0621e01",
          "032a1c2a4f98dc8e16b65970288a0bc735456d655d62f93a5b58c29ca78fa6b328"
        ],
        "sequence": 4294967293
      }
    ],
    "vout": [
      {
        "value": "1.00000000",
        "n": 0,
        "scriptPubKey": {
          "asm": "OP_HASH160 cffcca4e7d7982dcea10970e905ec743d8661f8d OP_EQUAL",
          "desc": "addr(2NCCxhAhZTuGZdQoPXVH6nizdw9hxzedzyp)#sdhmhu4l",
          "hex": "a914cffcca4e7d7982dcea10970e905ec743d8661f8d87",
          "address": "2NCCxhAhZTuGZdQoPXVH6nizdw9hxzedzyp",
          "type": "scripthash"
        }
      },
      {
        "value": "0.99990000",
        "n": 1,
        "scriptPubKey": {
          "asm": "OP_HASH160 9ae6a752db5592982791659bf9d250465ad3cc31 OP_EQUAL",
          "desc": "addr(2N7NGMvHPGNoGSHCggB5nPWwUMQmGjDk9L1)#vc96vfgd",
          "hex": "a9149ae6a752db5592982791659bf9d250465ad3cc3187",
          "address": "2N7NGMvHPGNoGSHCggB5nPWwUMQmGjDk9L1",
          "type": "scripthash"
        }
      }
    ],
    "hex": "02000000000101be9ff6bf0c684ce45b05515716b7e7525fe7495e8fc1a2daf3dec5f46313e8450000000017160014b7352cca6a6c51761e237b7427c4f8aacfea12ccfdffffff0200e1f5050000000017a914cffcca4e7d7982dcea10970e905ec743d8661f8d87f0b9f5050000000017a9149ae6a752db5592982791659bf9d250465ad3cc318702473044022001d59f10c08a8bd5a15675fd191ab9b9e461598711533f63b0dbb14eb10b368102202275aaa401daaa8e3f551f032df62bdfaa26b5f94776b33adeaa0bcd53e0621e0121032a1c2a4f98dc8e16b65970288a0bc735456d655d62f93a5b58c29ca78fa6b32800000000"
  },
  "script_analysis": {
    "scriptSig": {
      "asm": "0014b7352cca6a6c51761e237b7427c4f8aacfea12cc",
      "hex": "160014b7352cca6a6c51761e237b7427c4f8aacfea12cc"
    },
    "witness": [
      "3044022001d59f10c08a8bd5a15675fd191ab9b9e461598711533f63b0dbb14eb10b368102202275aaa401daaa8e3f551f032df62bdfaa26b5f94776b33adeaa0bcd53e0621e01",
      "032a1c2a4f98dc8e16b65970288a0bc735456d655d62f93a5b58c29ca78fa6b328"
    ],
    "scriptPubKeys": [
      {
        "asm": "OP_HASH160 cffcca4e7d7982dcea10970e905ec743d8661f8d OP_EQUAL",
        "desc": "addr(2NCCxhAhZTuGZdQoPXVH6nizdw9hxzedzyp)#sdhmhu4l",
        "hex": "a914cffcca4e7d7982dcea10970e905ec743d8661f8d87",
        "address": "2NCCxhAhZTuGZdQoPXVH6nizdw9hxzedzyp",
        "type": "scripthash"
      },
      {
        "asm": "OP_HASH160 9ae6a752db5592982791659bf9d250465ad3cc31 OP_EQUAL",
        "desc": "addr(2N7NGMvHPGNoGSHCggB5nPWwUMQmGjDk9L1)#vc96vfgd",
        "hex": "a9149ae6a752db5592982791659bf9d250465ad3cc3187",
        "address": "2N7NGMvHPGNoGSHCggB5nPWwUMQmGjDk9L1",
        "type": "scripthash"
      }
    ]
  },
  "size": 247,
  "vsize": 166,
  "weight": 661
}