{
  "txid": "4df4621475d4acc1d30e470108e193cbd2dad9d9259230e1bdaaabd3ad4739d5",
  "from": "2MtjGUJuJhxUkcXkqFtpMZ1viaETimWrbGL",
  "to": "2MuU9zXoK2D8GjDa3xz3ftj18NpNwJXXBpu",
  "amount": 1.0,
  "unsigned_tx": {
    "txid": "7997dd4cdfb8a005ac710309697a54a929ec0f181076b385be79f7c190d4d8a0",
    "hash": "7997dd4cdfb8a005ac710309697a54a929ec0f181076b385be79f7c190d4d8a0",
    "version": 2,
    "size": 115,
    "vsize": 115,
    "weight": 460,
    "locktime": 0,
    "vin": [
      {
        "txid": "a0cb51fd655c84d2c1e79299135274db352e523af5961c4046a58b38778e8cf5",
        "vout": 0,
        "scriptSig": {
          "asm": "",
          "hex": ""
        },
        "sequence": 4294967293
      }
    ],
    "vout": [
      {
        "value": "1.00000000",
        "n": 0,
        "scriptPubKey": {
          "asm": "OP_HASH160 186252d7df25377b1a67f5c3489dace48c85ad75 OP_EQUAL",
          "desc": "addr(2MuU9zXoK2D8GjDa3xz3ftj18NpNwJXXBpu)#2zufw50f",
          "hex": "a914186252d7df25377b1a67f5c3489dace48c85ad7587",
          "address": "2MuU9zXoK2D8GjDa3xz3ftj18NpNwJXXBpu",
          "type": "scripthash"
        }
      },
      {
        "value": "0.99990000",
        "n": 1,
        "scriptPubKey": {
          "asm": "OP_HASH160 1045d8782b716783c6867f99069979482169063d OP_EQUAL",
          "desc": "addr(2MtjGUJuJhxUkcXkqFtpMZ1viaETimWrbGL)#ah83t0qx",
          "hex": "a9141045d8782b716783c6867f99069979482169063d87",
          "address": "2MtjGUJuJhxUkcXkqFtpMZ1viaETimWrbGL",
          "type": "scripthash"
        }
      }
    ]
  },
  "signed_tx": {
    "txid": "4df4621475d4acc1d30e470108e193cbd2dad9d9259230e1bdaaabd3ad4739d5",
    "hash": "501e8c6cad89aa47e5491a9c58f1eb2fc0b0d7af67c7363c67afe0d01da9b8bb",
    "version": 2,
    "size": 247,
    "vsize": 166,
    "weight": 661,
    "locktime": 0,
    "vin": [
      {
        "txid": "a0cb51fd655c84d2c1e79299135274db352e523af5961c4046a58b38778e8cf5",
        "vout": 0,
        "scriptSig": {
          "asm": "0014bb8f737e426e6a6d53fc874606cc9c86137d8366",
          "hex": "160014bb8f737e426e6a6d53fc874606cc9c86137d8366"
        },
        "txinwitness": [
          "30440220050857fb4aac55ff7da1e7365edda7f1849b25d1056419b7487f11fd790ac1b5022014ffa7a0fe70ccd3325c9ddacfde2d75d018950aa25753bc620ab390fc53f66501",
          "021fbeb6d1274570ffa756e4e0d0c0e650af9bbad9c07fb19bbdf884550bbe791f"
        ],
        "sequence": 4294967293
      }
    ],
    "vout": [
      {
        "value": "1.00000000",
        "n": 0,
        "scriptPubKey": {
          "asm": "OP_HASH160 186252d7df25377b1a67f5c3489dace48c85ad75 OP_EQUAL",
          "desc": "addr(2MuU9zXoK2D8GjDa3xz3ftj18NpNwJXXBpu)#2zufw50f",
          "hex": "a914186252d7df25377b1a67f5c3489dace48c85ad7587",
          "address": "2MuU9zXoK2D8GjDa3xz3ftj18NpNwJXXBpu",
          "type": "scripthash"
        }
      },
      {
        "value": "0.99990000",
        "n": 1,
        "scriptPubKey": {
          "asm": "OP_HASH160 1045d8782b716783c6867f99069979482169063d OP_EQUAL",
          "desc": "addr(2MtjGUJuJhxUkcXkqFtpMZ1viaETimWrbGL)#ah83t0qx",
          "hex": "a9141045d8782b716783c6867f99069979482169063d87",
          "address": "2MtjGUJuJhxUkcXkqFtpMZ1viaETimWrbGL",
          "type": "scripthash"
        }
      }
    ]
  },
  "confirmed_tx": {
    "txid": "4df4621475d4acc1d30e470108e193cbd2dad9d9259230e1bdaaabd3ad4739d5",
    "hash": "501e8c6cad89aa47e5491a9c58f1eb2fc0b0d7af67c7363c67afe0d01da9b8bb",
    "version": 2,
    "size": 247,
    "vsize": 166,
    "weight": 661,
    "locktime": 0,
    "vin": [
      {
        "txid": "a0cb51fd655c84d2c1e79299135274db352e523af5961c4046a58b38778e8cf5",
        "vout": 0,
        "scriptSig": {
          "asm": "0014bb8f737e426e6a6d53fc874606cc9c86137d8366",
          "hex": "160014bb8f737e426e6a6d53fc874606cc9c86137d8366"
        },
        "txinwitness": [
          "30440220050857fb4aac55ff7da1e7365edda7f1849b25d1056419b7487f11fd790ac1b5022014ffa7a0fe70ccd3325c9ddacfde2d75d018950aa25753bc620ab390fc53f66501",
          "021fbeb6d1274570ffa756e4e0d0c0e650af9bbad9c07fb19bbdf884550bbe791f"
        ],
        "sequence": 4294967293
      }
    ],
    "vout": [
      {
        "value": "1.00000000",
        "n": 0,
        "scriptPubKey": {
          "asm": "OP_HASH160 186252d7df25377b1a67f5c3489dace48c85ad75 OP_EQUAL",
          "desc": "addr(2MuU9zXoK2D8GjDa3xz3ftj18NpNwJXXBpu)#2zufw50f",
          "hex": "a914186252d7df25377b1a67f5c3489dace48c85ad7587",
          "address": "2MuU9zXoK2D8GjDa3xz3ftj18NpNwJXXBpu",
          "type": "scripthash"
        }
      },
      {
        "value": "0.99990000",
        "n": 1,
        "scriptPubKey": {
          "asm": "OP_HASH160 1045d8782b716783c6867f99069979482169063d OP_EQUAL",
          "desc": "addr(2MtjGUJuJhxUkcXkqFtpMZ1viaETimWrbGL)#ah83t0qx",
          "hex": "a9141045d8782b716783c6867f99069979482169063d87",
          "address": "2MtjGUJuJhxUkcXkqFtpMZ1viaETimWrbGL",
          "type": "scripthash"
        }
      }
    ],
    "hex": "02000000000101f58c8e77388ba546401c96f53a522e35db7452139992e7c1d2845c65fd51cba00000000017160014bb8f737e426e6a6d53fc874606cc9c86137d8366fdffffff0200e1f5050000000017a914186252d7df25377b1a67f5c3489dace48c85ad7587f0b9f5050000000017a9141045d8782b716783c6867f99069979482169063d87024730440220050857fb4aac55ff7da1e7365edda7f1849b25d1056419b7487f11fd790ac1b5022014ffa7a0fe70ccd3325c9ddacfde2d75d018950aa25753bc620ab390fc53f6650121021fbeb6d1274570ffa756e4e0d0c0e650af9bbad9c07fb19bbdf884550bbe791f00000000"
  },
  "script_analysis": {
    "scriptSig": {
      "asm": "0014bb8f737e426e6a6d53fc874606cc9c86137d8366",
      "hex": "160014bb8f737e426e6a6d53fc874606cc9c86137d8366"
    },
    "witness": [
      "30440220050857fb4aac55ff7da1e7365edda7f1849b25d1056419b7487f11fd790ac1b5022014ffa7a0fe70ccd3325c9ddacfde2d75d018950aa25753bc620ab390fc53f66501",
      "021fbeb6d1274570ffa756e4e0d0c0e650af9bbad9c07fb19bbdf884550bbe791f"
    ],
    "scriptPubKeys": [
      {
        "asm": "OP_HASH160 186252d7df25377b1a67f5c3489dace48c85ad75 OP_EQUAL",
        "desc": "addr(2MuU9zXoK2D8GjDa3xz3ftj18NpNwJXXBpu)#2zufw50f",
        "hex": "a914186252d7df25377b1a67f5c3489dace48c85ad7587",
        "address": "2MuU9zXoK2D8GjDa3xz3ftj18NpNwJXXBpu",
        "type": "scripthash"
      },
      {
        "asm": "OP_HASH160 1045d8782b716783c6867f99069979482169063d OP_EQUAL",
        "desc": "addr(2MtjGUJuJhxUkcXkqFtpMZ1viaETimWrbGL)#ah83t0qx",
        "hex": "a9141045d8782b716783c6867f99069979482169063d87",
        "address": "2MtjGUJuJhxUkcXkqFtpMZ1viaETimWrbGL",
        "type": "scripthash"
      }
    ]
  },
  "size": 247,
  "vsize": 166,
  "weight": 661
}