{
  "txid": "ec59ddc4f77ef85ec6925e4745976d56ad97270db9f97dffa5ba470dcc326474",
  "from": "2MxgVrYi8coPBUmaNwP6heAJyCydBfZkiey",
  "to": "2MseHuHWv2HrT5vuQQcpSyd8voh4cvbjErs",
  "amount": 2.0,
  "unsigned_tx": {
    "txid": "f0873353039158525ee8ef2293b7093899d61e55a06c16c643a1cf38e571db78",
    "hash": "f0873353039158525ee8ef2293b7093899d61e55a06c16c643a1cf38e571db78",
    "version": 2,
    "size": 115,
    "vsize": 115,
    "weight": 460,
    "locktime": 0,
    "vin": [
      {
        "txid": "7fa77a9bd92713203a36b1cdb133d92f1469cb5bc19c36ca33c0bed19c25e584",
        "vout": 0,
        "scriptSig": {
          "asm": "",
          "hex": ""
        },
        "sequence": 4294967293
      }
    ],
    "vout": [
      {
        "value": "2.00000000",
        "n": 0,
        "scriptPubKey": {
          "asm": "OP_HASH160 045cd58f134b43d83b9c19ea231fb23df2fc98b5 OP_EQUAL",
          "desc": "addr(2MseHuHWv2HrT5vuQQcpSyd8voh4cvbjErs)#k7k62l4z",
          "hex": "a914045cd58f134b43d83b9c19ea231fb23df2fc98b587",
          "address": "2MseHuHWv2HrT5vuQQcpSyd8voh4cvbjErs",
          "type": "scripthash"
        }
      },
      {
        "value": "47.99990000",
        "n": 1,
        "scriptPubKey": {
          "asm": "OP_HASH160 3ba045d2a52034b76b4b69cfcc9dd34219d5002b OP_EQUAL",
          "desc": "addr(2MxgVrYi8coPBUmaNwP6heAJyCydBfZkiey)#ykq4erz8",
          "hex": "a9143ba045d2a52034b76b4b69cfcc9dd34219d5002b87",
          "address": "2MxgVrYi8coPBUmaNwP6heAJyCydBfZkiey",
          "type": "scripthash"
        }
      }
    ]
  },
  "signed_tx": {
    "txid": "ec59ddc4f77ef85ec6925e4745976d56ad97270db9f97dffa5ba470dcc326474",
    "hash": "0e472f3ab4a7bd0eef60180c6e205e86c129727fc2710cfeebd049da84fde904",
    "version": 2,
    "size": 247,
    "vsize": 166,
    "weight": 661,
    "locktime": 0,
    "vin": [
      {
        "txid": "7fa77a9bd92713203a36b1cdb133d92f1469cb5bc19c36ca33c0bed19c25e584",
        "vout": 0,
        "scriptSig": {
          "asm": "00149a29c21176818ab0bbe306699ed70aacccf57ceb",
          "hex": "1600149a29c21176818ab0bbe306699ed70aacccf57ceb"
        },
        "txinwitness": [
          "304402203c4137b3bff3a670ac7f71d4dbd31e8badc6a43b35d9a6dfc5c4853262794c5202207811b1b8d1be572e41a61560ed86ceed0cd823d473ff6770e7257e23983114dc01",
          "02aa04558b7662aefd5073d10969e38ea33bdfffbe0df3dbc4c841d14b31ad849e"
        ],
        "sequence": 4294967293
      }
    ],
    "vout": [
      {
        "value": "2.00000000",
        "n": 0,
        "scriptPubKey": {
          "asm": "OP_HASH160 045cd58f134b43d83b9c19ea231fb23df2fc98b5 OP_EQUAL",
          "desc": "addr(2MseHuHWv2HrT5vuQQcpSyd8voh4cvbjErs)#k7k62l4z",
          "hex": "a914045cd58f134b43d83b9c19ea231fb23df2fc98b587",
          "address": "2MseHuHWv2HrT5vuQQcpSyd8voh4cvbjErs",
          "type": "scripthash"
        }
      },
      {
        "value": "47.99990000",
        "n": 1,
        "scriptPubKey": {
          "asm": "OP_HASH160 3ba045d2a52034b76b4b69cfcc9dd34219d5002b OP_EQUAL",
          "desc": "addr(2MxgVrYi8coPBUmaNwP6heAJyCydBfZkiey)#ykq4erz8",
          "hex": "a9143ba045d2a52034b76b4b69cfcc9dd34219d5002b87",
          "address": "2MxgVrYi8coPBUmaNwP6heAJyCydBfZkiey",
          "type": "scripthash"
        }
      }
    ]
  },
  "confirmed_tx": {
    "txid": "ec59ddc4f77ef85ec6925e4745976d56ad97270db9f97dffa5ba470dcc326474",
    "hash": "0e472f3ab4a7bd0eef60180c6e205e86c129727fc2710cfeebd049da84fde904",
    "version": 2,
    "size": 247,
    "vsize": 166,
    "weight": 661,
    "locktime": 0,
    "vin": [
      {
        "txid": "7fa77a9bd92713203a36b1cdb133d92f1469cb5bc19c36ca33c0bed19c25e584",
        "vout": 0,
        "scriptSig": {
          "asm": "00149a29c21176818ab0bbe306699ed70aacccf57ceb",
          "hex": "1600149a29c21176818ab0bbe306699ed70aacccf57ceb"
        },
        "txinwitness": [
          "304402203c4137b3bff3a670ac7f71d4dbd31e8badc6a43b35d9a6dfc5c4853262794c5202207811b1b8d1be572e41a61560ed86ceed0cd823d473ff6770e7257e23983114dc01",
          "02aa04558b7662aefd5073d10969e38ea33bdfffbe0df3dbc4c841d14b31ad849e"
        ],
        "sequence": 4294967293
      }
    ],
    "vout": [
      {
        "value": "2.00000000",
        "n": 0,
        "scriptPubKey": {
          "asm": "OP_HASH160 045cd58f134b43d83b9c19ea231fb23df2fc98b5 OP_EQUAL",
          "desc": "addr(2MseHuHWv2HrT5vuQQcpSyd8voh4cvbjErs)#k7k62l4z",
          "hex": "a914045cd58f134b43d83b9c19ea231fb23df2fc98b587",
          "address": "2MseHuHWv2HrT5vuQQcpSyd8voh4cvbjErs",
          "type": "scripthash"
        }
      },
      {
        "value": "47.99990000",
        "n": 1,
        "scriptPubKey": {
          "asm": "OP_HASH160 3ba045d2a52034b76b4b69cfcc9dd34219d5002b OP_EQUAL",
          "desc": "addr(2MxgVrYi8coPBUmaNwP6heAJyCydBfZkiey)#ykq4erz8",
          "hex": "a9143ba045d2a52034b76b4b69cfcc9dd34219d5002b87",
          "address": "2MxgVrYi8coPBUmaNwP6heAJyCydBfZkiey",
          "type": "scripthash"
        }
      }
    ],
    "hex": "0200000000010184e5259cd1bec033ca369cc15bcb69142fd933b1cdb1363a201327d99b7aa77f00000000171600149a29c21176818ab0bbe306699ed70aacccf57cebfdffffff0200c2eb0b0000000017a914045cd58f134b43d83b9c19ea231fb23df2fc98b587f0081a1e0100000017a9143ba045d2a52034b76b4b69cfcc9dd34219d5002b870247304402203c4137b3bff3a670ac7f71d4dbd31e8badc6a43b35d9a6dfc5c4853262794c5202207811b1b8d1be572e41a61560ed86ceed0cd823d473ff6770e7257e23983114dc012102aa04558b7662aefd5073d10969e38ea33bdfffbe0df3dbc4c841d14b31ad849e00000000"
  },
  "script_analysis": {
    "scriptSig_asm": "00149a29c21176818ab0bbe306699ed70aacccf57ceb",
    "scriptSig_hex": "1600149a29c21176818ab0bbe306699ed70aacccf57ceb",
    "witness": [
      "304402203c4137b3bff3a670ac7f71d4dbd31e8badc6a43b35d9a6dfc5c4853262794c5202207811b1b8d1be572e41a61560ed86ceed0cd823d473ff6770e7257e23983114dc01",
      "02aa04558b7662aefd5073d10969e38ea33bdfffbe0df3dbc4c841d14b31ad849e"
    ],
    "scriptPubKeys": [
      {
        "asm": "OP_HASH160 045cd58f134b43d83b9c19ea231fb23df2fc98b5 OP_EQUAL",
        "type": "scripthash",
        "hex": "a914045cd58f134b43d83b9c19ea231fb23df2fc98b587"
      },
      {
        "asm": "OP_HASH160 3ba045d2a52034b76b4b69cfcc9dd34219d5002b OP_EQUAL",
        "type": "scripthash",
        "hex": "a9143ba045d2a52034b76b4b69cfcc9dd34219d5002b87"
      }
    ]
  },
  "size": 247,
  "vsize": 166,
  "weight": 661
}